:020000040800F2
:10000000B0070020CD0100082D0900084F050008A9
:100010006506000887020008071F000800000000AE
:100020000000000000000000000000003D0F00087C
:10003000A503000800000000250E0008ED100008D0
:10004000E7010008E7010008E7010008E7010008F0
:10005000E7010008E7010008E7010008E7010008E0
:10006000E7010008E7010008E7010008E7010008D0
:10007000E7010008E7010008E7010008E7010008C0
:10008000E7010008E7010008E7010008E7010008B0
:10009000E7010008E7010008E7010008E7010008A0
:1000A000E701000851110008E7010008E701000816
:1000B000E7010008E7010008E7010008E701000880
:1000C000E7010008E7010008E7010008E701000870
:1000D000E7010008851C0008E7010008E7010008A7
:1000E000E7010008E7010008E7010008E701000850
:1000F000E7010008E7010008E7010008E701000840
:10010000E7010008E7010008E7010008E70100082F
:10011000E7010008E7010008E7010008E70100081F
:10012000E7010008E7010008E7010008E70100080F
:1001300000F002F800F03AF80AA090E8000C8244BF
:100140008344AAF10107DA4501D100F02FF8AFF29C
:10015000090EBAE80F0013F0010F18BFFB1A43F0A5
:1001600001031847485D0000685D0000103A24BF95
:1001700078C878C1FAD8520724BF30C830C144BF0C
:1001800004680C607047000000230024002500264E
:10019000103A28BF78C1FBD8520728BF30C148BFEA
:1001A0000B6070471FB51FBD10B510BD00F031F8D2
:1001B0001146FFF7F7FF01F0BFFE00F04FF803B460
:1001C000FFF7F2FF03BC00F057F800000948804732
:1001D00009480047FEE7FEE7FEE7FEE7FEE7FEE729
:1001E000FEE7FEE7FEE7FEE704480549054A064B41
:1001F00070470000F110000831010008B001002034
:10020000B0070020B0030020B00300207047704703
:100210007047754600F02CF8AE4605006946534617
:1002200020F00700854618B020B5FFF7DDFFBDE8D8
:1002300020404FF000064FF000074FF000084FF04D
:10024000000B21F00701AC46ACE8C009ACE8C009DE
:10025000ACE8C009ACE8C0098D46704710B504464B
:10026000AFF300802046BDE81040FFF7A8BF0000B4
:10027000004870474C01002001491820ABBEFEE742
:1002800026000200704700BFFEE710B54FF42F6054
:1002900000F08EFA4FF42F6000F0FEF94FF42F605B
:1002A00000F0D4FA4FF42F6000F03AFA10BD10B508
:1002B0004FF42F6000F07CFA40F6223000F0ECF9A9
:1002C0004FF42F6000F0C2FA40F6223000F028FA16
:1002D00010BD10B54FF42F6000F06AFA40F62230DE
:1002E00000F0DAF94FF42F6000F0B0FA40F6223057
:1002F00000F016FA10BD10B5002000F059FA0020E9
:1003000000F0CAF9002000F0A1FA002000F008FA7D
:1003100010BD000010B5074800F0BEF9054800F018
:10032000FFF940F6B83000F043FA40F6B83000F07C
:100330008DFA10BD48F4FFFF10B5074800F0ACF986
:10034000054800F0EDF940F6AC5000F031FA40F607
:10035000AC5000F07BFA10BD54F2FFFF10B540F630
:10036000B83000F099F940F6B83000F0D9F90348F8
:1003700000F01EFA014800F069FA10BD48F4FFFFD2
:1003800010B540F6AC5000F087F940F6AC5000F0E4
:10039000C7F9034800F00CFA014800F057FA10BD05
:1003A00054F2FFFF704700B5034603E04FF47A7044
:1003B00000F005F8181EA3F10103F7D100BD00EB12
:1003C000C001C9004FF0E022516100219161052177
:1003D000116100BF4FF0E021096901F4803100296B
:1003E000F8D004214FF0E0221161704710B54FF4AE
:1003F0000061024800F0A4F810BD0000000C0140AC
:1004000010B54FF40061024800F098F810BD0000EC
:10041000000C01402DE9F041024600250026002095
:1004200000230024002791F803C00CF00F0591F879
:1004300003C00CF0100CBCF1000F03D091F802C007
:100440004CEA050591F800C0BCF1000F31D01468EA
:1004500000202BE04FF0010C0CFA00F3B1F800C0C3
:100460000CEA03069E4220D183004FF00F0C0CFAD9
:1004700003F7BC4305FA03FC4CEA040491F803C0FB
:10048000BCF1280F06D14FF0010C0CFA00FCC2F8A9
:1004900014C00AE091F803C0BCF1480F05D14FF039
:1004A000010C0CFA00FCC2F810C0401C0828D1D383
:1004B0001460B1F800C0BCF1FF0F34DD54680020B7
:1004C0002EE000F1080C4FF0010808FA0CF3B1F827
:1004D00000C00CEA03069E4221D183004FF00F0CAE
:1004E0000CFA03F7BC4305FA03FC4CEA040491F848
:1004F00003C0BCF1280F05D100F1080C08FA0CF874
:10050000C2F8148091F803C0BCF1480F07D100F184
:10051000080C4FF0010808FA0CF8C2F81080401CD3
:100520000828CED35460BDE8F081024600209368CD
:100530000B400BB1012000E0002070474161704783
:10054000016170470AB1016100E04161704700BF7D
:10055000FEE7000010B500244FF480711D48FFF73E
:10056000E4FF18B91420FFF71EFF01244FF40071B7
:100570001848FFF7DAFF18B91420FFF714FF022418
:100580004FF480611348FFF7D0FF18B91420FFF72C
:100590000AFF03244FF400610E48FFF7C6FF18B9A5
:1005A0001420FFF700FF04244FF480510948FFF79F
:1005B000BCFF18B91420FFF7F6FE05244FF40051D4
:1005C0000448FFF7B2FF18B91420FFF7ECFE062429
:1005D000204610BD0014014008B50121202000F084
:1005E00033FC48208DF803004FF47C50ADF8000038
:1005F00003208DF8020069460148FFF70BFF08BD94
:100600000014014008B50121082000F01DFC102055
:100610008DF803004FF44060ADF8000003208DF822
:10062000020069460448FFF7F5FE4FF440610248B6
:10063000FFF786FF08BD0000000C014010B54FF425
:1006400080610248FFF77CFF10BD0000000C0140F4
:1006500010B54FF480610248FFF770FF10BD000035
:10066000000C014000BFFEE710B501210348FFF771
:1006700065FF02210148FFF763FF10BD000C014038
:1006800010B501210348FFF75BFF02210148FFF786
:1006900057FF10BD000C014070B50446002C08DD6A
:1006A00000F01AF8204604F049FF054600F09EFBD2
:1006B00011E044B9FFF7E4FF204604F03FFF054690
:1006C00000F094FB07E0FFF7CFFF604204F036FF35
:1006D000054600F08BFB70BD10B501210348FFF704
:1006E0002FFF02210148FFF729FF10BD000C014038
:1006F00010B502210348FFF723FF04210148FFF74B
:100700001DFF10BD0010014010B502210348FFF786
:1007100017FF04210148FFF713FF10BD001001402F
:1007200070B50446002C08DD00F01AF8204604F0ED
:1007300005FF054600F068FB11E044B9FFF7E4FF50
:10074000204604F0FBFE054600F05EFB07E0FFF7E5
:10075000CFFF604204F0F2FE054600F055FB70BD8D
:1007600010B502210348FFF7E9FE04210148FFF715
:10077000E7FE10BD0010014010B54FF48051044851
:10078000FFF7DCFE4FF400510148FFF7D9FE10BD22
:10079000000C014010B54FF480510448FFF7D0FE23
:1007A0004FF400510148FFF7CBFE10BD000C014093
:1007B00070B50446002C08DD00F01AF8204604F05D
:1007C000BDFE054600F0F6FA11E044B9FFF7E2FF7E
:1007D000204604F0B3FE054600F0ECFA07E0FFF710
:1007E000CBFF604204F0AAFE054600F0E3FA70BDBC
:1007F00010B54FF480510448FFF7A2FE4FF40051AA
:100800000148FFF79BFE10BD000C014010B54FF4EE
:1008100000510448FFF794FE40210348FFF78EFE85
:1008200010BD0000001001400018014010B54FF449
:1008300000510448FFF784FE40210348FFF780FE83
:1008400010BD0000001001400018014070B50446C2
:10085000002C08DD00F01AF8204604F06FFE054673
:1008600000F0B6FA11E044B9FFF7E0FF204604F0CB
:1008700065FE054600F0ACFA07E0FFF7C7FF6042EF
:1008800004F05CFE054600F0A3FA70BD10B54FF40D
:1008900000510448FFF752FE40210348FFF750FE85
:1008A00010BD000000100140001801400EB50121EC
:1008B000082000F0C9FA0121102000F0C5FA01213A
:1008C000402000F0C1FA10208DF80B0043F2030025
:1008D000ADF8080003208DF80A0002A91048FFF7C0
:1008E00099FD10208DF8070042F20600ADF80400D3
:1008F00003208DF8060001A90A48FFF78BFD1020A0
:100900008DF803004020ADF8000003208DF80200B0
:1009100069460548FFF77EFD00F0E2F90EBD0000D4
:10092000000C014000100140001801407047000019
:1009300070B5002100230F22C47804B3154C24683D
:1009400004F4E064C4F5E064210AC1F10403CA4080
:10095000447804FA03F184781440214309010E4CD1
:100960000678A155047804F01F050124AC400578F1
:100970006D11AD0005F1E025C5F8004109E00478EE
:1009800004F01F050124AC40044D0678761145F8AB
:10099000264070BD0CED00E000E400E080E100E0E6
:1009A00002490143024A1160704700000000FA0545
:1009B0000CED00E070B500240EE00021204600F0B0
:1009C000F0F8002504E0002000F079F9681CC5B2B9
:1009D000802DF8DB601CC4B2082CEEDB70BD00007B
:1009E00008B50121082000F02FFA14208DF803002B
:1009F00003208DF802004FF48070ADF800006946C6
:100A00000A48FFF707FD4FF40070ADF80000694693
:100A10000648FFF7FFFC012211020448FFF792FD90
:100A2000012251020148FFF78DFD08BD000C014075
:100A300070B50546002415E08020204100EA05023B
:100A40004FF400710E48FFF77DFD012211020C48A2
:100A5000FFF778FD00224FF480710948FFF772FD1F
:100A6000601CC4B2082CE7DB012211020448FFF726
:100A700069FD00224FF480710148FFF763FD70BDEE
:100A8000000C014010B5012251020A48FFF75AFD3F
:100A9000012211020748FFF755FD00224FF40071B3
:100AA0000448FFF74FFD00224FF480710148FFF723
:100AB00049FD10BD000C014010B500224FF400713B
:100AC0000648FFF73FFD012211020448FFF73AFDF7
:100AD000012251020148FFF735FD10BD000C014015
:100AE00070B5002406E0002500E06D1CB5F57A7FA6
:100AF000FBD3641CB4F57A7FF5D3FFF771FFAE200A
:100B000000F0CDF8D52000F0CAF8802000F0C7F83A
:100B1000A82000F0C4F83F2000F0C1F8D32000F076
:100B2000BEF8002000F0BBF8402000F0B8F8A1208B
:100B300000F0B5F8C82000F0B2F8DA2000F0AFF805
:100B4000122000F0ACF8812000F0A9F8CF2000F0CE
:100B5000A6F8D92000F0A3F8F12000F0A0F8DB20DF
:100B600000F09DF8302000F09AF8A42000F097F8EB
:100B7000A62000F094F88D2000F091F8142000F0E9
:100B80008EF8AF2000F08BF8FFF714FF70BD10B5A2
:100B90000246012000E050430B1EA1F10101FAD1F1
:100BA00010BD70B505460C4645F0B00000F077F872
:100BB000102141EA141000F072F804F00F0000F068
:100BC0006EF870BD2DE9F04105460E461746721EBF
:100BD000D206110E6A1E5206100EFFF7E2FF002425
:100BE00009E0A7F12001134A02EB0111085D00F0B2
:100BF00066F8601CC4B2082CF3DB721ED206110E1C
:100C00006A1E012303EB4202D0B2FFF7CAFF0024A1
:100C10000BE0A7F12001074A02EB011204F10801E1
:100C2000505C00F04CF8601CC4B2082CF1DBBDE84D
:100C3000F0810000BA5800082DE9F0478146884647
:100C400015461E46002D06DB2B2241464846FFF77F
:100C5000B9FF2F4605E02D2241464846FFF7B2FF77
:100C60006F42002417E0301B411E0A20FFF78FFF60
:100C7000B7FBF0F00A21B0FBF1F201FB120000F12A
:100C8000300A08EB0400401CC1B252464846FFF748
:100C900099FF601CC4B2B442E5DBBDE8F08710B533
:100CA0000446FFF7EFFE7820FFF7C2FE0020FFF7B3
:100CB000BFFE2046FFF7BCFEFFF7FEFE10BD10B5DD
:100CC0000446FFF7DFFE7820FFF7B2FE4020FFF773
:100CD000AFFE2046FFF7ACFEFFF7EEFE10BD0000B2
:100CE00000B589B00121082000F09EF80121042000
:100CF00000F0AAF818208DF823000F20ADF820008E
:100D000003208DF8220008A92848FFF783FB284814
:100D100000F0B4FD0020ADF81A00ADF8160041F661
:100D20001F40ADF818006320ADF8140000208DF8C6
:100D30001C0005A91E4800F015FF01A800F0FFFEE9
:100D40006020ADF804000020ADF80C000120ADF8E3
:100D500006000020ADF80A0001A9154800F094FD36
:100D600001A9134800F046FE01A9114800F0E2FD78
:100D700001A90F4800F098FE08210D4800F0D0FDB1
:100D800008210B4800F086FE0821094800F024FEE7
:100D90000821074800F0C6FE0121054800F036FD95
:100DA0000121034800F044FD09B000BD00080140E6
:100DB000000C004070B50446204604F09FFB85B24D
:100DC0002946024800F0C5FE70BD0000000C00403E
:100DD00070B50446204604F091FB85B229460248CE
:100DE00000F0B9FE70BD0000000C004070B5044674
:100DF000204604F083FB85B22946024800F0ADFE90
:100E000070BD0000000C004070B50446204604F0A0
:100E100075FB85B22946024800F0A1FE70BD0000B6
:100E2000000C00407047000029B1064AD269024315
:100E3000044BDA6104E0034AD2698243014BDA6170
:100E4000704700000010024029B1064A926902432F
:100E5000044B9A6104E0034A92698243014B9A6110
:100E6000704700000010024030B50021002200242D
:100E700000232D4D6D6805F00C0121B1042905D02A
:100E8000082923D105E0294D056022E0274D0560A2
:100E90001FE0254D6D6805F47012234D6D6805F453
:100EA0008034022505EB92421CB9214D5543056063
:100EB0000BE01D4D6D6805F400351DB11C4D55430B
:100EC000056002E0194D5543056002E0174D0560CD
:100ED00000BF00BF144D6D6805F0F0010909154D04
:100EE0006B5C0568DD4045600F4D6D6805F4E061A1
:100EF000090A104D6B5C4568DD4085600A4D6D68E0
:100F000005F46051C90A0B4D6B5C4568DD40C56056
:100F1000054D6D6805F44041890B074D6B5CC56854
:100F2000B5FBF3F5056130BD0010024000127A00F8
:100F300000093D0000000020100000207047000064
:100F400000B587B001218803FFF77EFF012104204F
:100F5000FFF77AFF18208DF81B004FF40070ADF8F2
:100F6000180003208DF81A0006A92348FFF752FA4B
:100F700048208DF81B004FF48060ADF81800032066
:100F80008DF81A0006A91C48FFF744FA4FF4E13027
:100F900002900020ADF814000C20ADF812000020E3
:100FA000ADF81000ADF80E00ADF80C0002A9134822
:100FB00000F038FF012240F22551104800F00DFFEB
:100FC0004FF4A060FFF7ECFC25208DF80400012011
:100FD0008DF807008DF805008DF8060001A8FFF7D1
:100FE000A7FC0121054800F0C2FE0121044800F0E1
:100FF000BEFE07B000BD00000008014000380140FF
:10100000004C004010B500F001F810BD0CB50020F8
:10101000019000903348006840F480303149086006
:1010200000BF3048006800F4003000900198401C78
:101030000190009818B90198B0F5A06FF1D1294836
:10104000006800F4003010B10120009001E00020A1
:1010500000900098012843D12348006840F0100018
:10106000214908600846006820F00300086008462F
:10107000006840F0020008601A484068194948605A
:101080000846406848600846406840F48060486010
:101090000846406820F47C1048600846406840F4E8
:1010A000E81048600846006840F08070086000BFA3
:1010B0000C48006800F000700028F9D0094840682A
:1010C00020F00300074948600846406840F00200ED
:1010D000486000BF0348406800F00C000828F9D1C0
:1010E0000CBD0000001002400020024070470000CC
:1010F00010B51348006840F0010011490860084627
:101100004068104908400E494860084600680E498A
:1011100008400B4908600846006820F480200860F9
:101120000846406820F4FE0048604FF41F008860C5
:10113000FFF768FF4FF000600449086010BD000031
:10114000001002400000FFF8FFFFF6FE08ED00E08F
:101150002DE9F05F0121FE4800F076FB01287DD1EA
:101160000523FC4802780A210120FFF765FD0523CD
:10117000F94802780A210220FFF75EFDF74800686F
:1011800004F0A0F90446052322460A210320FFF7B4
:1011900053FD0523F24802780A210420FFF74CFD95
:1011A000F048B0F9000004F0C9F9EF4908604FF0C9
:1011B0008E41ED48006804F08FF80446EB4904F0D6
:1011C00009FAEB4908604FF07E51EA48006804F0E4
:1011D00045F907D14FF07E51E048006804F00EF861
:1011E000DE490860E449E248006804F0BFFA07D22B
:1011F000DF480168E14804F001F8DD4908600CE0CF
:10120000DF49DB48006804F0B1F906D2D84801682C
:10121000D64803F0F3FFD6490860D5480068D9499D
:101220000860D9480078012804D1D8480078401CCB
:10123000D6490870D54800780A2808DBFFF7FEF980
:10124000FFF7D4F80020D0490870D0490870D04882
:10125000007803287ED10020CE4900E0B1E208608A
:1012600008460168C748006804F0B2FACA49086035
:10127000CA480168C848006804F0AAFA0446C84889
:101280000168204604F0A6F9C6490860C64801680E
:10129000C148006804F09EF90546C4480168BE488C
:1012A000006804F097F90446C1480168204603F03D
:1012B000A5FFBF490860BB480168284603F09EFFB0
:1012C0000446BB480168204603F098FFB94908600E
:1012D000B9480168B748006804F048FA04D2B64833
:1012E0000068B44908600FE0B348006880F000442B
:1012F000B0480168204604F039FA05D2AE480068CB
:1013000080F00040AB490860A3480068A34908602A
:10131000A8480168002003F071FF064604F0D2F8E7
:1013200004B22046FFF7B8F9A2480168002003F094
:1013300065FF064604F0C6F804B22046FFF7F0F950
:101340009C480168002004F043FA064604F0BAF80D
:1013500004B200E00FE02046FFF72AFA9548016842
:10136000002004F035FA064604F0ACF804B220463A
:10137000FFF76CFA00BF7848007800287DD17548E7
:1013800000780428FAD176480078012807D07448FC
:101390000078032803D0724800780628EED1002098
:1013A0007C490860084601687648006804F010FA35
:1013B00079490860794801687748006804F008FABC
:1013C000044677480168204604F004F9754908602E
:1013D000754801687048006804F0FCF805467348D9
:1013E00001686D48006804F0F5F80446704801682B
:1013F000204603F003FF6E4908606A4801682846EA
:1014000003F0FCFE04466A480168204603F0F6FE3D
:1014100068490860684801686648006804F0A6F9F1
:1014200004D265480068634908600FE062480068BC
:1014300080F000445F480168204604F097F905D227
:101440005D48006880F000405A49086052480068D2
:101450005249086057480168002003F0CFFE064655
:1014600004F030F804B22046FFF716F9514801683D
:10147000002003F0C3FE064600E01EE004F022F860
:1014800004B22046FFF74CF94A480168002004F0F6
:101490009FF9064604F016F804B22046FFF788F9D3
:1014A00044480168002004F093F9064604F00AF865
:1014B00004B22046FFF7CAF900BF26480078032887
:1014C00003D12748007801280BD02248007804284F
:1014D00074D1234800780128FAD11F4800780128E8
:1014E000F6D14FF042402B49086008460168254874
:1014F000006804F06DF9284908602848016826480A
:10150000006804F065F9044625480168204604F0A7
:1015100061F824490860244801681F48006804F005
:1015200059F80546214801681B48006804F052F844
:1015300004461F480168204603F060FE1C4908600D
:1015400018480168284603F059FE0446184836E05A
:10155000002C0140680000206D0000207400002075
:101560006A000020140000202C00002000003443FA
:1015700034000020700000200000B442000034C39A
:101580000000B4C2640000206B0000206C0000204A
:101590006900002060000020440000204800002076
:1015A000400000205C000020380000203C000020AB
:1015B0004C000020540000205800002056E0016834
:1015C000204603F01BFE80490860804801687E4881
:1015D000006804F0CBF804D27C4800687A490860BF
:1015E0000FE07A48006880F00044774801682046A0
:1015F00004F0BCF805D27548006880F000407249DC
:10160000086073480068734908606F4801680020EB
:1016100003F0F4FD064603F055FF04B22046FFF741
:101620003BF869480168002003F0E8FD064603F036
:1016300049FF04B22046FFF773F8634801680020B1
:1016400004F0C6F8064603F03DFF04B22046FFF75B
:10165000AFF85D480168002004F0BAF8064603F0D0
:1016600031FF04B22046FFF7F1F800BF5A48007876
:1016700004287DD159485A490860084601685948EC
:10168000006804F0A5F852490860524801685048C3
:10169000006804F09DF8044653480168204603F0B2
:1016A00099FF52490860524801684948006803F0B0
:1016B00091FF82464F4801684548006803F08AFF61
:1016C00004464D480168204603F098FD4A490860E9
:1016D00046480168504603F091FD044646480168BB
:1016E000204603F08BFD38490860384801683648C9
:1016F000006804F03BF804D23448006832490860BE
:101700000FE03248006880F000442F48016820460E
:1017100004F02CF805D22D48006880F000402A49DA
:1017200008602B4800682B4908602748006803F0D0
:1017300039FD8046314A324B03F00AFB064600224F
:10174000134603F0E5F9044603F096FA0FFA80FB1E
:101750005846FEF7A1FF1C480168002003F04EFD2B
:10176000054603F0AFFE04B22046FEF7D9FF00E0C5
:1017700023E015480168002004F02AF8054603F02C
:10178000A1FE04B22046FFF713F80F48006803F0EB
:1017900009FD80464FF066321A4B03F0D9FA06462F
:1017A0000022134603F008FC044603F065FA0FFA22
:1017B00080FB5846FFF74AF800BF0121124800F0AD
:1017C00034F8BDE8F09F00005400002058000020CD
:1017D00044000020480000206A00002000001C4255
:1017E0006000002064000020400000205C00002019
:1017F000380000203C0000204C0000209A99999964
:101800009999F13F6666F23F002C014021B10288B0
:1018100042F08002028004E002884FF67F731A4093
:1018200002807047CA4302827047CA4302827047EF
:1018300021B1028842F00102028004E002884FF6E2
:10184000FE731A400280704730B502460020002324
:101850000024158A05EA0103958905EA010413B1FC
:101860000CB1012000E0002030BD1AB183890B4388
:10187000838102E083898B438381704701894FF61E
:10188000F87211400181704770B5002400220023D6
:10189000058C4FF6FE7635400584028C8388048BD8
:1018A0004FF68F752C40B51E2C400D882C43751EAD
:1018B0002A400D892A434D882A43144DA8420BD053
:1018C000134DA84208D0134DA84205D0124DA8428E
:1018D00002D0124DA84213D14FF6F7752A404D8918
:1018E0002A434FF6FB752A408D882A434FF6FF6541
:1018F0002B404FF6FF552B408D892B43CD892B4331
:1019000083800483CD888586028470BD002C0140CD
:1019100000340140004001400044014000480140C3
:101920000A460021018B4FF6F773194011430183DA
:101930007047000070B5002400220023058C4FF68C
:10194000EF7635400584028C8388048B48F6FF755A
:101950002C404FF6FF452C400D884FF6FF7606EAE7
:1019600005252C434FF6DF752A400D8906EA05153B
:101970002A434D8806EA05152A43154DA84202D090
:10198000144DA8421DD14FF67F752A404D894FF660
:10199000FF7606EA05152A434FF6BF752A408D8863
:1019A00006EA05152A434FF6FF352B404FF2FF7527
:1019B0002B408D8906EA85052B43CD8906EA8505EE
:1019C0002B4383800483CD880587028470BD00008B
:1019D000002C0140003401400A460021018B4FF2E7
:1019E000FF7319404FF6FF7303EA02231943018383
:1019F0007047000070B5002400220023058C4FF6CC
:101A0000FF6635400584028C8388848B4FF68F7582
:101A10002C404FF6FC752C400D882C434FF6FF559B
:101A20002A400D894FF6FF7606EA05252A434D88A0
:101A300006EA05252A43154DA84202D0144DA842B6
:101A40001DD14FF2FF752A404D894FF6FF7606EA09
:101A500005252A434FF6FF352A408D8806EA0525DD
:101A60002A434EF6FF752B404DF6FF752B408D89AE
:101A700006EA05152B43CD8906EA05152B4383801D
:101A80008483CD888587028470BD0000002C0140CE
:101A9000003401400A460021818B4FF6F77319404C
:101AA000114381837047000070B500220023002499
:101AB000058C4EF6FF7635400584038C8488828B36
:101AC00048F6FF752A404FF6FF452A400D884FF62D
:101AD000FF7606EA05252A434DF6FF752B400D8952
:101AE00006EA05352B434D8806EA05352B430B4D99
:101AF000A84202D00A4DA84208D14BF6FF752C40EF
:101B00008D894FF6FF7606EA85152C438480828303
:101B1000CD88A0F84050038470BD0000002C014027
:101B2000003401400A460021818B4FF2FF731940B7
:101B30004FF6FF7303EA02231943818370470021A4
:101B4000018041808180C180018141818181C18189
:101B50007047818670470187704781877047A0F87A
:101B600040107047002202881D4B98420ED01D4B3A
:101B700098420BD0B0F1804F08D01B4B984205D053
:101B80001A4B984202D01A4B984204D14FF68F73E9
:101B90001A404B881A43174B984207D0164B98426D
:101BA00004D04FF6FF431A40CB881A4302808B883B
:101BB00083850B8803850A4B98420BD0094B9842CA
:101BC00008D00E4B984205D00D4B984202D00D4BD9
:101BD000984201D10B7A038601238382704700006B
:101BE000002C014000340140000400400008004087
:101BF000000C004000100040001400400040014074
:101C000000440140004801401FB50121C802FFF710
:101C10001BF91B48FFF732FE0020ADF80A00ADF8B3
:101C200006006320ADF8080041F61F40ADF804003F
:101C300000208DF80C0001A91148FFF793FF012146
:101C40000F48FFF7EFFD012211460D48FFF70DFE8B
:101C50004FF4A060FEF7A4FE19208DF800000120CB
:101C60008DF8030002208DF8010001208DF802009C
:101C70006846FEF75DFE01210148FFF7D9FD1FBD53
:101C8000002C014010B540F225512B4800F07BF8A4
:101C9000012850D1284800F031F9C4B22748007813
:101CA00080B9552C41D101202449087000202449D5
:101CB000087024480978445421480078401C204981
:101CC000087032E01D48007801280ED1532C2CD129
:101CD00002201A4908701B481949097844541848C9
:101CE0000078401C164908701FE01448007802284C
:101CF0001BD1144812490978445411480078401CFB
:101D00000F4908700846007808280EDB00200B49B0
:101D1000087001200C4908700A48C079000200B21E
:101D20000849897908430949088040F22551024849
:101D300000F00EF800BF10BD003801402100002067
:101D40002200002084000020200000201400002039
:101D500010B50022002340F66A14A14200D100BF52
:101D60000A1201249440A3B2DC43048010BD21B1C7
:101D7000828942F40052828104E082894DF6FF7329
:101D80001A408281704770B5024600240023002566
:101D9000002040F66A16B14200D100BFC1F34215DF
:101DA00001F01F03012606FA03F3012D02D19689E3
:101DB000334006E0022D02D1168A334001E0968AB4
:101DC00033400C12012606FA04F41688344013B18D
:101DD0000CB1012000E0002070BDF0B503460024E6
:101DE00000260025002040F66A17B94200D100BF46
:101DF0001846C1F3421401F01F06012707FA06F541
:101E0000012C01D10C3004E0022C01D1103000E093
:101E100014301AB107682F43076002E00768AF4328
:101E20000760F0BD2DE9F04786B005460E46002458
:101E3000A24600BFA1460027B08900B100BF2F46CF
:101E40002C8A4CF6FF700440F08804432C82AC8945
:101E50004EF6F3100440B088318908437189084375
:101E60000443AC81AC8A4FF6FF400440B089044380
:101E7000AC8201A8FEF7F8FF1F48874202D1DDF8C7
:101E800010A001E0DDF80CA0A88900F4004040B1EA
:101E90000AEBCA0000EB0A1031684900B0FBF1F808
:101EA00007E00AEBCA0000EB0A1031688900B0FBBA
:101EB000F1F86420B8FBF0F004012009642101FB73
:101EC0001089A88900F4004040B1322000EBC9001D
:101ED000B0FBF1F000F00700044308E0322000EB13
:101EE00009106421B0FBF1F000F00F0004432C81D5
:101EF00006B0BDE8F0870000003801400146888840
:101F0000C0F30800704700BFFEE7000008B50121DC
:101F10004020FEF799FF40F2BF10ADF8000003200B
:101F20008DF8020048208DF8030069460148FEF74D
:101F300071FA08BD00180140FEF764FBFEF7D0FD02
:101F4000FFF762FEFEF7B2FCFEF7CAFEFEF744FBA7
:101F5000FFF7DCFFFEF7F4FF02F0B8BDFEF7FAFA78
:101F600098B1FEF7F7FA01280BD0FEF7F3FA022832
:101F700007D0FEF7EFFA032803D0FEF7EBFA0428A8
:101F800003D1FEF7E7FAFE490870FD480078012802
:101F90003BD136E0FEF779F90121FA48FEF7C5FAA0
:101FA00018B30221F748FEF7C0FAF0B10421F54852
:101FB000FEF7BBFAC8B10821F248FEF7B6FAA0B1A5
:101FC0001021F048FEF7B1FA78B12021ED48FEF774
:101FD000ACFA50B18021EB48FEF7A7FA28B14FF4D4
:101FE0008071E848FEF7A1FA58B9FEF784F9FEF7C8
:101FF0002FFBFEF705FA0120E34908700020E049B5
:102000000870DF4800780128C4D0DD480078022835
:102010007DD136E0FEF74BF98021DA48FEF785FAEC
:1020200018B30121D748FEF780FAF0B10221D54854
:10203000FEF77BFAC8B10421D248FEF776FAA0B1C8
:102040000821D048FEF771FA78B11021CD48FEF78B
:102050006CFA50B12021CB48FEF767FA28B14FF453
:102060008071C848FEF761FA58B90120C649087066
:10207000FEF7EEFAFEF7C4F9C4480078401CC349E5
:102080000870C24800780128C4D0FDE28021BD4814
:10209000FEF74BFA01282BD10121BA48FEF745FA89
:1020A000012825D10221B748FEF73FFA01281FD1A8
:1020B0000421B448FEF739FAD0B90821B148FEF737
:1020C00034FA012814D11021AE48FEF72EFA012867
:1020D0000ED12021AB48FEF728FA012808D10102D1
:1020E000A848FEF722FA012802D1FEF7E0F8CBE279
:1020F0008021A448FEF719FA01282DD10121A14819
:10210000FEF713FA012827D102219E4800E0FDE3E3
:10211000FEF70BFA01281FD104219A48FEF705FAB1
:10212000012819D108219748FEF7FFF9A0B910211D
:102130009448FEF7FAF901280ED120219148FEF7C4
:10214000F4F9012808D101028E48FEF7EEF90128C2
:1021500002D1FEF7ACF897E280218A48FEF7E5F954
:1021600001282AD101218748FEF7DFF9012824D16F
:1021700002218448FEF7D9F901281ED104218148A3
:10218000FEF7D3F9C8B908217E48FEF7CEF9A0B909
:1021900010217C48FEF7C9F901280ED12021794889
:1021A000FEF7C3F9012808D101027648FEF7BDF910
:1021B000012802D1FEF77BF866E280217148FEF724
:1021C000B4F901282BD101216E48FEF7AEF90128A0
:1021D00025D102216B48FEF7A8F900BB042169480C
:1021E000FEF7A3F901281AD108216648FEF79DF9E8
:1021F000012814D110216348FEF797F901280ED168
:1022000020216048FEF791F9012808D101025D48BC
:10221000FEF78BF9012802D1FEF77CF834E2802129
:102220005848FEF782F901282BD101215548FEF7C5
:102230007CF930BB02215348FEF777F9012820D101
:1022400004215048FEF771F901281AD108214D48A0
:10225000FEF76BF9012814D110214A48FEF765F901
:1022600001280ED120214748FEF75FF9012808D147
:1022700001024448FEF759F9012802D1FEF75CF843
:1022800002E280213F48FEF750F960BB01213D4842
:10229000FEF74BF9012826D102213A48FEF745F90D
:1022A000012820D104213748FEF73FF901281AD12F
:1022B00008213448FEF739F9012814D1102131489A
:1022C000FEF733F901280ED120212E48FEF72DF913
:1022D000012808D101022B48FEF727F9012802D175
:1022E000FEF72AF8D0E180212648FEF71EF90128E2
:1022F0002AD101212348FEF718F928BB02212148E1
:10230000FEF713F900BB04211E48FEF70EF9012861
:102310001AD108211B48FEF708F9012814D1102111
:102320001848FEF702F901280ED120211548FEF7C2
:10233000FCF8012808D101021248FEF7F6F801283E
:1023400002D1FDF7E7FF9FE180210E48FEF7EDF88F
:10235000A0BB01210B48FEF7E8F878BB0221094831
:10236000FEF7E3F801282AD104210648FEF7DDF83C
:10237000012824D108210348FEF7D7F8012807E0F7
:1023800068000020001801406B0000206900002058
:1023900015D11021FE48FEF7C8F801280FD12021E1
:1023A000FB48FEF7C2F8012809D10102F848FEF700
:1023B000BCF8012803D1FDF7BFFF65E1FFE78021ED
:1023C000F348FEF7B2F801282BD10121F048FEF7BF
:1023D000ACF8012825D10221ED48FEF7A6F8012826
:1023E0001FD10421EA48FEF7A0F8012819D10821DD
:1023F000E748FEF79AF8012813D11021E448FEF7C8
:1024000094F870B92021E248FEF78FF8012808D12E
:102410000102DF48FEF789F8012802D1FDF79EFF8F
:1024200032E18021DA48FEF780F801282CD1012121
:10243000D748FEF77AF8012826D10221D448FEF7C2
:1024400074F8012820D10421D148FEF76EF8012844
:102450001AD10821CE48FEF768F8012814D11021BE
:10246000CB48FEF762F801280ED12021C848FEF7BC
:102470005CF848B94FF48071C548FEF756F801285A
:1024800002D1FDF76BFFFFE08021C148FEF74DF858
:1024900001282BD10121BE48FEF747F8012825D19C
:1024A0000221BB48FEF741F801281FD10421B8489A
:1024B000FEF73BF8012819D10821B548FEF735F899
:1024C000012813D11021B248FEF72FF801280DD1B1
:1024D0002021AF48FEF729F8012807D10102AC48B6
:1024E000FEF723F810B9FDF74BFFCDE08021A84897
:1024F000FEF71BF801282BD10121A548FEF715F89E
:10250000012825D10221A248FEF70FF801281FD18A
:1025100004219F48FEF709F8012819D108219C4899
:10252000FEF703F8012813D110219948FDF7FDFFAC
:1025300070B920219648FDF7F8FF48B94FF4807133
:102540009348FDF7F2FF012802D1FDF719FF9BE048
:1025500080218F48FDF7E9FF01282BD101218C480C
:10256000FDF7E3FF012825D102218948FDF7DDFFB2
:1025700001281FD104218648FDF7D7FF012819D172
:1025800008218348FDF7D1FF012813D1102180488D
:10259000FDF7CBFF01280DD120217D48FDF7C5FFB8
:1025A00040B94FF480717A48FDF7BFFF10B9FDF7CD
:1025B000E7FE69E080217648FDF7B7FF30BB0121D7
:1025C0007348FDF7B2FF08BB02217148FDF7ADFF6C
:1025D000E0B904216E48FDF7A8FFB8B908216C489E
:1025E000FDF7A3FF90B910216948FDF79EFF68B978
:1025F00020216748FDF799FF40B94FF48071644886
:10260000FDF793FF10B9FDF776FE3DE080216048AD
:10261000FDF78BFF012837D101215D48FDF785FFCC
:10262000012831D102215A48FDF77FFF01282BD123
:1026300004215748FDF779FF012825D10821544886
:10264000FDF773FF01281FD110215148FDF76DFFE1
:10265000012819D120214E48FDF767FF012813D129
:1026600001024B48FDF761FF01280DD1FDF743FE44
:10267000FDF7EEFFFDF7C4FE01204649087046480D
:102680000078401C444908704348007802283FF411
:10269000FDAC10E041494248006803F067F80AD8F1
:1026A00040493F48006802F061FF04D83A4800788A
:1026B000401C39490870384800780328EAD040E3C4
:1026C000FDF707FE80213248FDF72FFF18B30121E7
:1026D0002F48FDF72AFFF0B102212D48FDF725FF15
:1026E000C8B104212A48FDF720FFA0B108212848DD
:1026F000FDF71BFF78B110212548FDF716FF50B1FB
:1027000020212348FDF711FF28B14FF480712048A4
:10271000FDF70BFF58B9FDF79BFFFDF771FE012098
:102720001C4908701C480078401C1B49087003E3D2
:1027300080211748FDF7F9FE012838D101211448FE
:10274000FDF7F3FE012832D102211148FDF7EDFE1D
:1027500001282CD104210E48FDF7E7FE38BB0821E3
:102760000B48FDF7E2FE012821D110210848FDF7B2
:10277000DCFE01281BD120210548FDF7D6FE0128EB
:1027800015D101020248FDF7D0FE01280FD10BE060
:10279000001801406B00002069000020000040C0CC
:1027A0006400002000004040FDF781FDC4E280216C
:1027B000F948FDF7BAFE01282BD10121F648FDF7B3
:1027C000B4FE012825D10221F348FDF7AEFE012811
:1027D0001FD10421F048FDF7A8FE012819D10821D6
:1027E000ED48FDF7A2FEA0B91021EB48FDF79DFED4
:1027F00001280ED12021E848FDF797FE012808D1D5
:102800000102E548FDF791FE012802D1FDF74FFDD9
:1028100092E28021E048FDF788FE01282AD10121BB
:10282000DD48FDF782FE012824D10221DA48FDF7B8
:102830007CFE01281ED10421D748FDF776FEC8B9D9
:102840000821D548FDF771FEA0B91021D248FDF747
:102850006CFE01280ED12021CF48FDF766FE01282D
:1028600008D10102CC48FDF760FE012802D1FDF736
:102870001EFD61E28021C848FDF757FE01282BD1DB
:102880000121C548FDF751FE012825D10221C2488A
:10289000FDF74BFE00BB0421BF48FDF746FE0128B3
:1028A0001AD10821BC48FDF740FE012814D110219F
:1028B000B948FDF73AFE01280ED12021B648FDF7B0
:1028C00034FE012808D10102B348FDF72EFE01288D
:1028D00002D1FDF71FFD2FE28021AF48FDF725FE55
:1028E00001282DD10121AC48FDF71FFE40BB02217C
:1028F000A948FDF71AFE012822D10421A648FDF7B8
:1029000014FE01281CD10821A34800E01EE2FDF7B7
:102910000CFE012814D110219F48FDF706FE012866
:102920000ED120219C48FDF700FE012808D10102AC
:102930009948FDF7FAFD012802D1FDF7FDFCFBE106
:1029400080219548FDF7F1FD60BB01219248FDF71C
:10295000ECFD012826D102218F48FDF7E6FD012874
:1029600020D104218C48FDF7E0FD01281AD108216F
:102970008948FDF7DAFD012814D110218648FDF7BA
:10298000D4FD01280ED120218348FDF7CEFD01287A
:1029900008D101028048FDF7C8FD012802D1FDF7EA
:1029A000CBFCC9E180217C48FDF7BFFD01282AD17D
:1029B00001217948FDF7B9FD28BB02217648FDF7D2
:1029C000B4FD00BB04217448FDF7AFFD01281AD106
:1029D00008217148FDF7A9FD012814D110216E4886
:1029E000FDF7A3FD01280ED120216B48FDF79DFDC9
:1029F000012808D101026848FDF797FD012802D19E
:102A0000FDF788FC98E180216348FDF78EFD58BBF7
:102A100001216148FDF789FD30BB02215E48FDF7C9
:102A200084FD012820D104215B48FDF77EFD0128AB
:102A30001AD108215848FDF778FD012814D110213A
:102A40005548FDF772FD01280ED120215248FDF7AF
:102A50006CFD012808D101024F48FDF766FD0128F1
:102A600002D1FDF769FC67E180214B48FDF75DFD70
:102A700001282BD101214848FDF757FD012825D118
:102A800002214548FDF751FD01281FD1042142488C
:102A9000FDF74BFD012819D108213F48FDF745FD01
:102AA000012813D110213C48FDF73FFD70B92021CA
:102AB0003948FDF73AFD012808D101023648FDF7F3
:102AC00034FD012802D1FDF749FC35E1802132486F
:102AD000FDF72BFD01282CD101212F48FDF725FD05
:102AE000012826D102212C48FDF71FFD012820D105
:102AF00004212948FDF719FD01281AD1082126488B
:102B0000FDF713FD012814D110212348FDF70DFD19
:102B100001280ED120212048FDF707FD48B94FF4C8
:102B200080711D48FDF701FD012802D1FDF716FC5B
:102B300002E180211848FDF7F8FC01282ED101217F
:102B40001548FDF7F2FC012828D102211248FDF7B3
:102B5000ECFC012822D104210F48FDF7E6FC0128F6
:102B60001CD108210C48FDF7E0FC012816D11021EA
:102B70000948FDF7DAFC012810D120210648FDF7AD
:102B8000D4FC01280AD101020348FDF7CEFC28B984
:102B9000FDF7F6FBD0E00000001801408021FE4860
:102BA000FDF7C3FC01282BD10121FB48FDF7BDFC3B
:102BB000012825D10221F848FDF7B7FC01281FD1D3
:102BC0000421F548FDF7B1FC012819D10821F2488C
:102BD000FDF7ABFC012813D11021EF48FDF7A5FC50
:102BE00070B92021EC48FDF7A0FC48B94FF4807182
:102BF000E948FDF79AFC012802D1FDF7C1FB9BE0F3
:102C00008021E548FDF791FC01282BD10121E24804
:102C1000FDF78BFC012825D10221DF48FDF785FC5B
:102C200001281FD10421DC48FDF77FFC012819D1C0
:102C30000821D948FDF779FC012813D11021D64885
:102C4000FDF773FC01280DD12021D348FDF76DFC61
:102C500040B94FF48071D048FDF767FC10B9FDF71B
:102C60008FFB69E08021CC48FDF75FFC30BB012180
:102C7000C948FDF75AFC08BB0221C748FDF755FCBF
:102C8000E0B90421C448FDF750FCB8B90821C24896
:102C9000FDF74BFC90B91021BF48FDF746FC68B921
:102CA0002021BD48FDF741FC40B94FF48071BA487E
:102CB000FDF73BFC10B9FDF71EFB3DE08021B64857
:102CC000FDF733FC012837D10121B348FDF72DFC76
:102CD000012831D10221B048FDF727FC01282BD172
:102CE0000421AD48FDF721FC012825D10821AA487F
:102CF000FDF71BFC01281FD11021A748FDF715FC8B
:102D0000012819D12021A448FDF70FFC012813D177
:102D10000102A148FDF709FC01280DD1FDF7EBFAEE
:102D2000FDF796FCFDF76CFB01209C4908709C4860
:102D30000078401C9A4908709948007805283FF4AB
:102D4000F7AC9748007804283FF4BAAC954800786F
:102D500003287CD11CE094499448006802F006FDE9
:102D600016D893499148006802F000FC10D8022060
:102D7000904908700020904908708C48006802F063
:102D8000A1FB04460623224601210846FDF754FF15
:102D9000884800780128DED036E0FDF788FA8021E7
:102DA0007D48FDF7C2FB18B301217B48FDF7BDFB51
:102DB000F0B102217848FDF7B8FBC8B1042176488C
:102DC000FDF7B3FBA0B108217348FDF7AEFB78B166
:102DD00010217148FDF7A9FB50B120216E48FDF785
:102DE000A4FB28B14FF480716B48FDF79EFB58B9E6
:102DF000FDF72EFCFDF704FB0120684908706D48C3
:102E00000078401C6B4908706A4800780228C4D0DA
:102E1000FAE34FF07E506949086080215E48FDF773
:102E200084FB01282DD101215B48FDF77EFB0128A1
:102E300027D102215848FDF778FB012821D1042130
:102E40005548FDF772FBE0B90821534800E0FDE367
:102E5000FDF76BFB012814D110214F48FDF765FBEE
:102E600001280ED120214C48FDF75FFB012808D135
:102E700001024948FDF759FB012802D1FDF717FA75
:102E8000F4E280214448FDF750FB01282BD10121B9
:102E90004148FDF74AFB012825D102213E48FDF7B4
:102EA00044FB01281FD104213B48FDF73EFB0128CC
:102EB00019D108213848FDF738FBA0B91021364850
:102EC000FDF733FB01280ED120213348FDF72DFB00
:102ED000012808D101023048FDF727FB012802D163
:102EE000FDF7E5F9C2E280212B48FDF71EFB012822
:102EF0002AD101212848FDF718FB012824D10221FD
:102F00002548FDF712FB01281ED104212248FDF7B8
:102F10000CFBC8B908212048FDF707FBA0B9102118
:102F20001D48FDF702FB01280ED120211A48FDF7AC
:102F3000FCFA012808D101021748FDF7F6FA01282A
:102F400002D1FDF7B4F991E280211348FDF7EDFAC3
:102F5000012841D101211048FDF7E7FA01283BD1B2
:102F600002210D48FDF7E1FA50BB04210A48FDF7A4
:102F7000DCFA012830D108210748FDF7D6FA0128EC
:102F80002AD110210448FDF7D0FA012824D12021AC
:102F90000148FDF7CAFA14E0001801406B00002058
:102FA0006900002068000020000008C264000020C2
:102FB0000000D8C16A0000206D00002070000020D1
:102FC0000AE0012808D10102FA48FDF7AEFA01280B
:102FD00002D1FDF79FF949E28021F648FDF7A5FAF5
:102FE00001282BD10121F348FDF79FFA30BB0221C4
:102FF000F048FDF79AFA012820D10421ED48FDF7A9
:1030000094FA01281AD10821EA48FDF78EFA01281E
:1030100014D11021E748FDF788FA01280ED12021AC
:10302000E448FDF782FA012808D10102E148FDF7E2
:103030007CFA012802D1FDF77FF917E28021DD48F3
:10304000FDF773FA60BB0121DA48FDF76EFA01283B
:1030500026D10221D748FDF768FA012820D10421A2
:10306000D448FDF762FA01281AD10821D148FDF7AA
:103070005CFA012814D11021CE48FDF756FA012838
:103080000ED12021CB48FDF750FA012808D10102CA
:10309000C848FDF74AFA012802D1FDF74DF9E5E1EC
:1030A0008021C448FDF741FA01282AD10121C148F5
:1030B000FDF73BFA28BB0221BE48FDF736FA00BBFC
:1030C0000421BC48FDF731FA01281AD10821B9487A
:1030D000FDF72BFA012814D11021B648FDF725FA87
:1030E00001280ED12021B348FDF71FFA012808D18D
:1030F0000102B048FDF719FA012802D1FDF70AF9DB
:10310000B4E18021AB48FDF710FA58BB0121A94872
:10311000FDF70BFA30BB0221A648FDF706FA01289D
:1031200020D10421A348FDF700FA01281AD1082173
:10313000A048FDF7FAF9012814D110219D48FDF7A8
:10314000F4F901280ED120219A48FDF7EEF9012863
:1031500008D101029748FDF7E8F9012802D1FDF7EF
:10316000EBF883E180219348FDF7DFF901282BD1AB
:1031700001219048FDF7D9F9012825D102218D4878
:10318000FDF7D3F901281FD104218A48FDF7CDF9B5
:10319000012819D108218748FDF7C7F9012813D163
:1031A00010218448FDF7C1F970B920218148FDF74D
:1031B000BCF9012808D101027E48FDF7B6F90128C3
:1031C00002D1FDF7CBF851E180217A48FDF7ADF946
:1031D00001282CD101217748FDF7A7F9012826D134
:1031E00002217448FDF7A1F9012820D1042171487A
:1031F000FDF79BF901281AD108216E48FDF795F9D2
:10320000012814D110216B48FDF78FF901280ED148
:1032100020216848FDF789F948B94FF48071654865
:10322000FDF783F9012802D1FDF798F81EE180210E
:103230006048FDF77AF901282BD101215D48FDF79F
:1032400074F9012825D102215A48FDF76EF90128A9
:103250001FD104215748FDF768F9012819D1082129
:103260005448FDF762F9012813D110215148FDF7A8
:103270005CF901280DD120214E48FDF756F90128AF
:1032800007D101024B48FDF750F910B9FDF778F866
:10329000ECE080214748FDF748F901282BD10121B6
:1032A0004448FDF742F9012825D102214148FDF7A4
:1032B0003CF901281FD104213E48FDF736F90128C9
:1032C00019D108213B48FDF730F9012813D110210D
:1032D0003848FDF72AF970B920213648FDF725F95D
:1032E00048B94FF480713348FDF71FF9012802D126
:1032F000FDF746F8BAE080212E48FDF716F90128BF
:103300002BD101212B48FDF710F9012825D10221ED
:103310002848FDF70AF901281FD104212548FDF7A7
:1033200004F9012819D108212248FDF7FEF80128E7
:1033300013D110211F48FDF7F8F801280DD12021E5
:103340001C48FDF7F2F840B94FF480711948FDF7B9
:10335000ECF810B9FDF714F888E080211548FDF766
:10336000E4F830BB01211348FDF7DFF808BB022168
:103370001048FDF7DAF8E0B904210E48FDF7D5F85A
:10338000B8B908210B48FDF7D0F890B910210948C9
:10339000FDF7CBF868B920210648FDF7C6F840B91B
:1033A0004FF480710348FDF7C0F810B9FCF7A3FF94
:1033B0005CE001E0001801408021F948FDF7B5F814
:1033C000012853D10121F648FDF7AFF801284DD16E
:1033D0000221F348FDF7A9F8012847D10421F0485C
:1033E000FDF7A3F8012841D10821ED48FDF79DF82C
:1033F00001283BD11021EA48FDF797F8012835D183
:103400002021E748FDF791F801282FD10102E44877
:10341000FDF78BF8012829D1E249E348006802F062
:10342000A5F806D8FCF788FF4FF07E50DF4908600A
:103430001CE0DF49DC48006802F098F802D8FCF78D
:103440007BFF13E00020D8490860DA490860FDF7E7
:10345000FFF8FCF7D5FF0120D74908708007D34952
:103460000860D6480078401CD449087023E0D4494D
:10347000D448006802F07AF908D8D349D1480068E6
:1034800002F074F802D80120D0490870D049CD4824
:10349000006802F06BF80ED84FF08441C94800680C
:1034A00002F064F907D8C5480078401CC349087089
:1034B0000020C6490870C14800780428D7D036E0FB
:1034C000FCF7F5FE8021B648FDF72FF818B301216F
:1034D000B348FDF72AF8F0B10221B148FDF725F80D
:1034E000C8B10421AE48FDF720F8A0B10821AC48CE
:1034F000FDF71BF878B11021A948FDF716F850B177
:103500002021A748FDF711F828B14FF48071A44895
:10351000FDF70BF858B9FDF79BF8FCF771FF012098
:10352000A5490870A5480078401CA4490870A34824
:1035300000780528C4D02CE34FF07E509D490860E8
:1035400080219748FCF7F1FF01282BD101219448F5
:10355000FCF7EBFF012825D102219148FCF7E5FF9C
:1035600001281FD104218E48FCF7DFFFD0B90821C4
:103570008B48FCF7DAFF012814D110218848FCF7AA
:10358000D4FF01280ED120218548FCF7CEFF012869
:1035900008D101028248FCF7C8FF012802D1FCF7DC
:1035A00086FEF6E280217E48FCF7BFFF01282CD181
:1035B00001217B48FCF7B9FF012826D10221784878
:1035C000FCF7B3FF012820D104217548FCF7ADFFBB
:1035D00001281AD108217248FCF7A7FFA8B91021C9
:1035E0006F48FCF7A2FF01280FD120216C48FCF79F
:1035F0009CFF012809D101026948FCF796FF0128C8
:1036000003D1FCF754FEC4E2C8E280216448FCF711
:103610008CFF01282CD101216148FCF786FF01288D
:1036200026D102215E48FCF780FF012820D1042129
:103630005B48FCF77AFFD8B908215948FCF775FFB9
:10364000B0B910215648FCF770FF00E0ABE201284A
:103650000ED120215248FCF768FF012808D1010251
:103660004F48FCF762FF012802D1FCF720FE90E2F0
:1036700080214B48FCF759FF01282BD101214848F4
:10368000FCF753FF012825D102214548FCF74DFFE7
:1036900000BB04214248FCF748FF01281AD1082149
:1036A0003F48FCF742FF012814D110213C48FCF7A9
:1036B0003CFF01280ED120213948FCF736FF0128B4
:1036C00008D101023648FCF730FF012802D1FCF78F
:1036D00021FE5EE280213248FCF727FF01282BD132
:1036E00001212F48FCF721FF30BB02212C48FCF7B9
:1036F0001CFF012820D104212948FCF716FF0128CE
:103700001AD108212648FCF710FF012814D11021F6
:103710002348FCF70AFF01280ED120212048FCF79E
:1037200004FF012808D101021D48FCF7FEFE012814
:1037300002D1FCF701FE2CE280211948FCF7F5FECE
:1037400060BB01211648FCF7F0FE012842D102219E
:103750001348FCF7EAFE01283CD104211048FCF78D
:10376000E4FE012836D108210D48FCF7DEFE0128D1
:1037700030D110210A48FCF7D8FE01282AD1202197
:103780000748FCF7D2FE012824D101020448FCF7C7
:10379000CCFE01281ED1FCF7CFFDFAE11AE00000B3
:1037A000001801400000A041740000207C000020AF
:1037B0000000F041700000206B0000206A00002033
:1037C0000000A0C0640000200000A0406D000020A8
:1037D000000020428021F748FCF7A7FE01282AD1EB
:1037E0000121F448FCF7A1FE28BB0221F148FCF7B7
:1037F0009CFE00BB0421EF48FCF797FE01281AD17C
:103800000821EC48FCF791FE012814D11021E94869
:10381000FCF78BFE01280ED12021E648FCF785FE3F
:10382000012808D10102E348FCF77FFE012802D1FC
:10383000FCF770FDADE18021DE48FCF776FE58BB59
:103840000121DC48FCF771FE30BB0221D948FCF7AE
:103850006CFE012820D10421D648FCF766FE012821
:103860001AD10821D348FCF760FE012814D1102199
:10387000D048FCF75AFE01280ED12021CD48FCF794
:1038800054FE012808D10102CA48FCF74EFE012867
:1038900002D1FCF751FD7CE18021C648FCF745FED2
:1038A00001282BD10121C348FCF73FFE012825D177
:1038B0000221C048FCF739FE01281FD10421BD4870
:1038C000FCF733FE012819D10821BA48FCF72DFE78
:1038D000012813D11021B748FCF727FE70B9202129
:1038E000B448FCF722FE012808D10102B148FCF7D8
:1038F0001CFE012802D1FCF731FD4AE18021AD48D0
:10390000FCF713FE01282CD10121AA48FCF70DFE7B
:10391000012826D10221A748FCF707FE012820D163
:103920000421A448FCF701FE01281AD10821A1486E
:10393000FCF7FBFD012814D110219E48FCF7F5FD92
:1039400001280ED120219B48FCF7EFFD48B94FF428
:1039500080719848FCF7E9FD012802D1FCF7FEFCD4
:1039600017E180219348FCF7E0FD01282BD10121CC
:103970009048FCF7DAFD012825D102218D48FCF79B
:10398000D4FD01281FD104218A48FCF7CEFD01286F
:1039900019D108218748FCF7C8FD012813D110214F
:1039A0008448FCF7C2FD01280DD120218148FCF795
:1039B000BCFD012807D101027E48FCF7B6FD10B915
:1039C000FCF7DEFCE5E080217A48FCF7AEFD01283B
:1039D0002BD101217748FCF7A8FD012825D1022130
:1039E0007448FCF7A2FD01281FD104217148FCF79F
:1039F0009CFD012819D108216E48FCF796FD01288D
:103A000013D110216B48FCF790FD70B92021694853
:103A1000FCF78BFD48B94FF480716648FCF785FDD3
:103A2000012802D1FCF7ACFCB3E080216148FCF72F
:103A30007CFD01282BD101215E48FCF776FD012891
:103A400025D102215B48FCF770FD01281FD104211C
:103A50005848FCF76AFD012819D108215548FCF7A0
:103A600064FD012813D110215248FCF75EFD0128A6
:103A70000DD120214F48FCF758FD40B94FF480711B
:103A80004C48FCF752FD10B9FCF77AFC81E080212C
:103A90004848FCF74AFD78BB01214648FCF745FD44
:103AA00050BB02214348FCF740FD28BB042141489C
:103AB000FCF73BFD00BB08213E48FCF736FDD8B9BA
:103AC00010213C48FCF731FDB0B920213948FCF702
:103AD0002CFD88B94FF480713648FCF726FD58B9A3
:103AE00035493648006801F041FD02D8FCF748FC32
:103AF0004FE0FCF700FC4CE0FFE780212D48FCF78D
:103B000014FD012845D101212A48FCF70EFD0128AA
:103B10003FD102212748FCF708FD012839D10421B3
:103B20002448FCF702FD012833D108212148FCF785
:103B3000FCFC01282DD110211E48FCF7F6FC0128C1
:103B400027D120211B48FCF7F0FC012821D10102DC
:103B50001848FCF7EAFC01281BD1174917480068F0
:103B600001F004FD02D8FCF70BFC12E00020144920
:103B7000086012490860FCF7BEFBFCF769FDFCF722
:103B80003FFC01200F4908700F480078401C0E4987
:103B900008700D48007806283FF4CEAC0A4800783B
:103BA00003283FF436A90948007804287ED100F0A4
:103BB000A1FF39E0001801400000F041740000202E
:103BC000700000206B0000206A00002068000020C8
:103BD000FD49FE48006801F0C9FD08D8FC49FB48D2
:103BE000006801F0C3FC02D80120FA490870FA49C4
:103BF000F648006801F0BAFD16D8F849F3480068A5
:103C000001F0B4FC10D80220F54908700020F149F9
:103C10000870EE48006801F055FC04460623224671
:103C200001210846FDF708F8ED4800780128CFD0BB
:103C300039E0FCF73CFB8021EA48FCF776FC18B33E
:103C40000121E848FCF771FCF0B10221E548FCF7DE
:103C50006CFCC8B10421E348FCF767FCA0B1082163
:103C6000E048FCF762FC78B11021DE48FCF75DFC0F
:103C700050B12021DB48FCF758FC28B14FF480718B
:103C8000D848FCF752FC70B9FCF7E2FCFCF7B8FB33
:103C90000120D5490870D2480078401CD0490870EE
:103CA0000020CC490870CE48007800E0FDE30228EF
:103CB000BFD000F01FFFF9E3C349C448006801F01A
:103CC00055FD0AD8C249C148006801F04FFC04D82C
:103CD000FCF7EDFA0120BF490870BE4800780128C2
:103CE00034D14FF07E50C14908608021BD48FCF7B7
:103CF0001CFC01282BD10121BA48FCF716FC012835
:103D000025D10221B748FCF710FC01281FD104215E
:103D1000B448FCF70AFCD0B90821B248FCF705FC0E
:103D2000012814D11021AF48FCF7FFFB01280ED168
:103D30002021AC48FCF7F9FB012808D10102A94871
:103D4000FCF7F3FB012802D1FCF7B1FAEBE280218A
:103D5000A448FCF7EAFB01282BD10121A148FCF77C
:103D6000E4FB012825D102219E48FCF7DEFB012857
:103D70001FD104219B48FCF7D8FB012819D1082149
:103D80009848FCF7D2FBA0B910219648FCF7CDFB70
:103D900001280ED120219348FCF7C7FB012808D148
:103DA00001029048FCF7C1FB012802D1FCF77FFA21
:103DB000B9E280218B48FCF7B8FB01282AD1012108
:103DC0008848FCF7B2FB012824D102218548FCF782
:103DD000ACFB01281ED104218248FCF7A6FBC8B920
:103DE00008218048FCF7A1FBA0B910217D48FCF711
:103DF0009CFB01280ED120217A48FCF796FB012874
:103E000008D101027748FCF790FB012802D1FCF7AA
:103E10004EFA88E280217348FCF787FB01282BD1FA
:103E200001217048FCF781FB012825D102216D4852
:103E3000FCF77BFB00BB04216A48FCF776FB0128FA
:103E40001AD108216748FCF770FB012814D1102112
:103E50006448FCF76AFB01280ED120216148FCF779
:103E600064FB012808D101025E48FCF75EFB0128D3
:103E700002D1FCF74FFA56E280215A48FCF755FB75
:103E800001282BD101215748FCF74FFB30BB022101
:103E90005448FCF74AFB012820D104215148FCF783
:103EA00044FB01281AD108214E48FCF73EFB0128AB
:103EB00014D110214B48FCF738FB01280ED12021EA
:103EC0004848FCF732FB012808D101024548FCF7BD
:103ED0002CFB012802D1FCF72FFA24E28021414873
:103EE000FCF723FB60BB01213E48FCF71EFB0128C9
:103EF00026D102213B48FCF718FB012820D10421E0
:103F00003848FCF712FB01281AD108213548FCF784
:103F10000CFB012814D110213248FCF706FB0128C4
:103F20000ED120212F48FCF700FB012808D1010207
:103F30002C48FCF7FAFA012802D1FCF7FDF9F2E16E
:103F400080212848FCF7F1FA01282AD101212548CF
:103F5000FCF7EBFA28BB02212248FCF7E6FA00BB8B
:103F600004212048FCF7E1FA01281AD108211D4854
:103F7000FCF7DBFA012814D110211A48FCF7D5FA16
:103F800001280ED120211748FCF7CFFA012808D1CB
:103F900001021448FCF7C9FA012802D1FCF7BAF96A
:103FA000C1E180210F48FCF7C0FAE8BB01210D48B0
:103FB000FCF7BBFAC0BB02210A48FCF7B6FA01289D
:103FC00037D10421074813E00000A0C0640000209E
:103FD0000000A0406D000020000008C20000D8C111
:103FE0006A000020001801406B00002070000020D3
:103FF000FCF79BFA01281CD10821FE48FCF795FA32
:10400000012816D11021FB48FCF78FFA012810D1A6
:104010002021F848FCF789FA01280AD10102F54865
:10402000FCF783FA012800E003E002D1FCF784F9F1
:1040300079E18021EF48FCF778FA01282BD10121A2
:10404000EC48FCF772FA012825D10221E948FCF777
:104050006CFA01281FD10421E648FCF766FA012812
:1040600019D10821E348FCF760FA012813D1102187
:10407000E048FCF75AFA70B92021DE48FCF755FAFF
:10408000012808D10102DB48FCF74FFA012802D1D0
:10409000FCF764F947E18021D648FCF746FA01288D
:1040A0002CD10121D348FCF740FA012826D1022166
:1040B000D048FCF73AFA012820D10421CD48FCF77A
:1040C00034FA01281AD10821CA48FCF72EFA01282F
:1040D00014D11021C748FCF728FA01280ED120215D
:1040E000C448FCF722FA48B94FF48071C148FCF784
:1040F0001CFA012802D1FCF731F914E18021BD48F6
:10410000FCF713FA01282BD10121BA48FCF70DFA6C
:10411000012825D10221B748FCF707FA01281FD151
:104120000421B448FCF701FA012819D10821B1484B
:10413000FCF7FBF9012813D11021AE48FCF7F5F983
:1041400001280DD12021AB48FCF7EFF9012807D158
:104150000102A848FCF7E9F910B9FCF711F9E2E00F
:104160008021A448FCF7E1F901282BD10121A148C5
:10417000FCF7DBF9012825D102219E48FCF7D5F98F
:1041800001281FD104219B48FCF7CFF9012819D140
:1041900008219848FCF7C9F9012813D11021954846
:1041A000FCF7C3F970B920219248FCF7BEF948B971
:1041B0004FF480718F48FCF7B8F9012802D1FCF761
:1041C000DFF8B0E080218B48FCF7AFF901282BD154
:1041D00001218848FCF7A9F9012825D10221854849
:1041E000FCF7A3F901281FD104218248FCF79DF9AF
:1041F000012819D108217F48FCF797F9012813D12C
:1042000010217C48FCF791F901280DD12021794833
:10421000FCF78BF940B94FF480717648FCF785F9CB
:1042200010B9FCF7ADF87EE080217248FCF77DF90B
:1042300030BB01216F48FCF778F908BB02216D48BB
:10424000FCF773F9E0B904216A48FCF76EF9B8B9D4
:1042500008216848FCF769F990B910216548FCF716
:1042600064F968B920216348FCF75FF940B94FF45D
:1042700080716048FCF759F910B9FCF75DF852E01D
:1042800080215C48FCF751F901284CD101215948A3
:10429000FCF74BF9012846D102215648FCF745F9B5
:1042A000012840D104215348FCF73FF901283AD1B5
:1042B00008215048FCF739F9012834D110214D4824
:1042C000FCF733F901282ED120214A48FCF72DF9BB
:1042D000012828D101024748FCF727F9012822D1FB
:1042E00045494648006801F041F902D8FCF712F848
:1042F00019E041494148006801F038FA13D2002022
:104300003E4908603E490860FCF7A2F9FCF778F8DE
:1043100001203C49087000203B4908703B48007868
:10432000401C3A49087000F0E5FB22E03849394862
:10433000006801F01BF91CD83648006800F032FF15
:1043400004460022344B00F001FE12D82F480078BA
:10435000401C2E49087000202B4908702D48006829
:1043600001F0B0F804460623224601210220FCF7A2
:1043700063FC264800780428D8D039E0FBF797FF83
:1043800080211C48FCF7D1F818B301211948FCF72B
:10439000CCF8F0B102211748FCF7C7F8C8B10421E6
:1043A0001448FCF7C2F8A0B108211248FCF7BDF888
:1043B00078B110210F48FCF7B8F850B120210D4812
:1043C000FCF7B3F828B14FF480710A48FCF7ADF858
:1043D00070B9FCF73DF9FCF713F8012009490870A2
:1043E0000A480078401C09490870002006490870F6
:1043F000064813E0001801400000C8427400002085
:10440000700000206B0000206D0000206A0000207A
:10441000000024426400002000404040007805284D
:10442000ACD000F067FB47E34FF04041FE48006826
:1044300001F09CF90BD84FF08041FB48006801F077
:1044400095F804D8FBF733FF0120F8490870F748C6
:104450000078012837D14FF07E50F549086080215F
:10446000F448FCF762F801282ED10121F148FCF74D
:104470005CF8012828D10221EE48FCF756F8012803
:1044800022D10421EB48FCF750F8E8B90821E948AB
:10449000FCF74BF8012817D11021E648FCF745F846
:1044A000012811D12021E34801E00FE309E3FCF7E3
:1044B0003CF8012808D10102DE48FCF736F8012853
:1044C00002D1FBF7F4FEF7E28021DA48FCF72DF881
:1044D00001282BD10121D748FCF727F8012825D145
:1044E0000221D448FCF721F801281FD10421D1482A
:1044F000FCF71BF8012819D10821CE48FCF715F864
:10450000A0B91021CB48FCF710F801280ED12021CA
:10451000C848FCF70AF8012808D10102C548FCF791
:1045200004F8012802D1FBF7C2FEC5E28021C14890
:10453000FBF7FBFF01282AD10121BE48FBF7F5FF5D
:10454000012824D10221BB48FBF7EFFF01281ED12F
:104550000421B848FBF7E9FFC8B90821B548FBF7C3
:10456000E4FFA0B91021B348FBF7DFFF01280ED10B
:104570002021B048FBF7D9FF012808D10102AD483E
:10458000FBF7D3FF012802D1FBF791FE94E28021D3
:10459000A848FBF7CAFF01282BD10121A548FBF74A
:1045A000C4FF012825D10221A248FBF7BEFF00BBB2
:1045B0000421A048FBF7B9FF01281AD108219D4822
:1045C000FBF7B3FF012814D110219A48FBF7ADFF88
:1045D00001280ED120219748FBF7A7FF012808D119
:1045E00001029448FBF7A1FF012802D1FBF792FEDC
:1045F00062E280218F48FBF798FF01282BD101212F
:104600008C48FBF792FF30BB02218A48FBF78DFFF5
:10461000012820D104218748FBF787FF01281AD100
:1046200008218448FBF781FF012814D1102181481B
:10463000FBF77BFF01280ED120217E48FBF775FF99
:10464000012808D101027B48FBF76FFF012802D146
:10465000FBF772FE30E280217648FBF766FF60BB15
:1046600001217448FBF761FF012826D1022171481E
:10467000FBF75BFF012820D104216E48FBF755FFB3
:1046800001281AD108216B48FBF74FFF012814D1EC
:1046900010216848FBF749FF01280ED12021654809
:1046A000FBF743FF012808D101026248FBF73DFFF9
:1046B000012802D1FBF740FEFEE180215D48FBF7B7
:1046C00034FF01282AD101215A48FBF72EFF28BBCD
:1046D00002215848FBF729FF00BB04215548FBF78E
:1046E00024FF01281AD108215248FBF71EFF012898
:1046F00014D110214F48FBF718FF01280ED12021BB
:104700004C48FBF712FF012808D101024948FBF78A
:104710000CFF012802D1FBF7FDFDCDE180214548CA
:10472000FBF703FF58BB01214248FBF7FEFE30BBFD
:1047300002214048FBF7F9FE012820D104213D4821
:10474000FBF7F3FE01281AD108213A48FBF7EDFEEA
:10475000012814D110213748FBF7E7FE01280ED1BC
:1047600020213448FBF7E1FE012808D1010231483D
:10477000FBF7DBFE012802D1FBF7DEFD9CE1802187
:104780002C48FBF7D2FE01282BD101212948FBF749
:10479000CCFE012825D102212648FBF7C6FE0128C0
:1047A0001FD104212348FBF7C0FE012819D108219D
:1047B0002048FBF7BAFE012813D110211D48FBF752
:1047C000B4FE70B920211B48FBF7AFFE012808D1C9
:1047D00001021848FBF7A9FE012802D1FBF7BEFD34
:1047E0006AE180211348FBF7A0FE012835D10121A1
:1047F0001048FBF79AFE01282FD102210D48FBF744
:1048000094FE012829D104210A48FBF78EFE0128D5
:1048100023D108210748FBF788FE01281DD110216C
:104820000448FBF782FE07E0640000206D000020D2
:10483000700000200018014001280ED12021A4485A
:10484000FBF773FE48B94FF48071A148FBF76DFE8A
:10485000012802D1FBF782FD2EE180219C48FBF765
:1048600064FE01282BD101219948FBF75EFE012847
:1048700025D102219648FBF758FE01281FD10421BB
:104880009348FBF752FE012819D108219048FBF705
:104890004CFE012813D110218D48FBF746FE01285C
:1048A0000DD120218A48FBF740FE012807D10102E3
:1048B0008748FBF73AFE10B9FBF762FDFCE0802168
:1048C0008348FBF732FE01282BD101218048FBF7FA
:1048D0002CFE012825D102217D48FBF726FE012868
:1048E0001FD104217A48FBF720FE012819D10821A5
:1048F0007748FBF71AFE012813D110217448FBF703
:1049000014FE70B920217248FBF70FFE48B94FF42E
:1049100080716F48FBF709FE012802D1FBF730FDDB
:10492000CAE080216A48FBF700FE01282BD1012153
:104930006748FBF7FAFD012825D102216448FBF7FF
:10494000F4FD01281FD104216148FBF7EEFD012889
:1049500019D108215E48FBF7E8FD012813D1102189
:104960005B48FBF7E2FD01280DD120215848FBF7F9
:10497000DCFD40B94FF480715548FBF7D6FD10B906
:10498000FBF7FEFC98E080215148FBF7CEFD30BBE1
:1049900001214F48FBF7C9FD08BB02214C48FBF73A
:1049A000C4FDE0B904214A48FBF7BFFDB8B90821AE
:1049B0004748FBF7BAFD90B910214548FBF7B5FD14
:1049C00068B920214248FBF7B0FD40B94FF480712F
:1049D0003F48FBF7AAFD10B9FBF7D2FC6CE0802141
:1049E0003B48FBF7A2FD012866D101213848FBF7BF
:1049F0009CFD012860D102213548FBF796FD012876
:104A00005AD104213248FBF790FD012854D10821E6
:104A10002F48FBF78AFD01284ED110212C48FBF7C7
:104A200084FD012848D120212948FBF77EFD01287B
:104A300042D101022648FBF778FD01283CD12549E7
:104A40002548006800F092FD02D8FBF787FC33E0B0
:104A500020492148006800F089FE2DD24FF07E5198
:104A60001E48006800F0CAFB1C49086000201C4971
:104A7000086019490860FBF7EBFDFBF7C1FC01205A
:104A8000184908704FF081411448006800F0E6FCB6
:104A90000AD115480078401C13490870FBF72BFC1D
:104AA00000201249087002E001200F490870002020
:104AB0000F490870FBF77EFF0B48007806283FF48B
:104AC000B3AC0948007803283FF4F6A8FDF746BACE
:104AD000001801400000C842740000207800002047
:104AE000700000206B0000206A0000206800002099
:104AF0006D00002000200349086003490860034955
:104B00000860704744000020480000204C0000204E
:104B100010B591EA030F48BF83F0004300F16082B3
:104B2000841A71EB030C05D2121943EB0C03001B22
:104B300061EB0C01DFF824E14FEA1154A4EB135CA4
:104B40001EEA430F18BF9EEA445F73D023EA0E03A8
:104B5000DCF1200E21EA045143F4801332D322FA0F
:104B60000CFE10EB0E0023FA0CFE41EB0E01CCF113
:104B7000200E03FA0EFE10EB0E0051F10001B1F50C
:104B8000801FCCF1200E32D201EB045112FA0EF24A
:104B9000BDE8104058BF7047401C38BF5FEA420272
:104BA00018BF7047002814BF20F0010041F1000138
:104BB0004FEA410313F5001F38BF7047A1F1C04110
:104BC00000F0BEB9012A43EB0302ACF1200CDCF18A
:104BD0001F0E32BF4FF0000E23FA0CF310EB030050
:104BE00041EB0451B4EB115FD0D0A1EB045101F5BE
:104BF000801149085FEA300001EB04510ED350F1F7
:104C0000000038BF12FA0EFE08D1BDE81040C9E717
:104C1000401C38BF5FEA4202CAD1C3E7BDE810407A
:104C20004FEA410313F5001F38BF7047A1F1C0419F
:104C300000F086B99EEA445F08D011EA5E0FBDE835
:104C4000104004BF01F0004100207047BDE8104053
:104C500070B500F027F900BF64FBBE3E0000E0FF26
:104C6000491058BFC1F140415B1058BFC3F14043E8
:104C70008B42EFF3008070474FEA41034FEA5353F2
:104C8000A3F58063D3F11E03C8BFD3F1210C0CDD63
:104C90004FF0004242EAC12242EA505232FA03FC8B
:104CA0008CEAE17CACEBE1707047102BC4BF0020B4
:104CB000704703F5787CBCF1FF3F04D06FF00042F1
:104CC00082EA2100704770B500F0ECF84992248028
:104CD00000207047F2E7000051EA030C17D41CF5DE
:104CE000801F58BFBCF5801F00F10680994218BF95
:104CF000704708BF9042704707D711F5801F58BF13
:104D000013F5801F19D499427047894270471CF5EA
:104D1000801F08D5BCF5801FF7D58B4218BF7047A0
:104D200008BF824270474FF4001C1CEB410F38BF94
:104D30001CEB430F01D28B42704770B500F0B2F804
:104D4000922449004FF000514FF08053FFF788BF85
:104D5000DFF848C170B51CEA111E1EBF1CEA13150E
:104D60009EEA0C0F95EA0C0F00F06F8081EA0304B5
:104D700023EA4C134EEAD47E21EA4C1141F480110F
:104D800043F48013AE44A1FB024CA0FB0365AEF1DB
:104D90007F7E361955EB0C05A1FB034C4CF100034B
:104DA000A0FB021C16EB0C06654153F100030942FF
:104DB00018BF46F0010613F4007F0BD14FEA033110
:104DC0004FEA0530340341EA155140EA16506FF0BE
:104DD00003020AE04FEAC3214FEAC520F40241EA88
:104DE000555140EA56506FF0020202EB2E4201EBA1
:104DF000025585EACE710AD05FEA440C18BF24F050
:104E0000004450F1000041F1000120EAD47040F26A
:104E1000FE7C624500D270BDA84214BF4FF08044B2
:104E20004FF04044002E08BF0024BEF1806FA8BFA1
:104E3000A1F1C041BDE8704080F282804FF00000D7
:104E400001F1C04101F0004170479EEA0C0F0CEAED
:104E5000131518BF95EA0C0F06D04FF0000081EA39
:104E6000030E0EF0004170BD00F01CF88900013EF9
:104E700000F007B800F009B84FEA430C5FEA5C5C49
:104E800008D081EA030100F05BB84FEA410C5FEA09
:104E90005C5CF6D14FF00000014970470000FF074D
:104EA0000000F87F0EF1020E2EF0030E5EF8046B88
:104EB000364205D4012A43EB030515F5001F12D82D
:104EC000012841EB010C1CF5001F0CD80ED14FEA54
:104ED000D17C15F5001F0CEB4C0C0CF1020C08BF3B
:104EE0004CEBD37C04E04FF0080C01E04FEAD37C9C
:104EF0000CEB4C0526FA05F606F00706B6F1040C95
:104F000006D20EEB860CBDE870404CF0010C6047F9
:104F1000DFE80CF0090B02024FF000414FF00000F7
:104F2000A1F5002170BD19461046012851EB01047E
:104F300018BFD4F5001484BF002001F0004170BDFB
:104F40000808A0F500114FEA3101704753EA010C3F
:104F500017D41CF5801F58BFBCF5801F00F10680D8
:104F60008B4218BF704708BF8242704707D713F5BE
:104F7000801F58BF11F5801F19D48B4270479B4288
:104F800070471CF5801F08D5BCF5801FF7D59942E6
:104F900018BF704708BF904270474FF4001C1CEBCD
:104FA000430F38BF1CEB410F01D2994270470FB439
:104FB0000CBC03BCFFF7C1BE91EA030F10B581F032
:104FC00000413FF5ADAD83F0004300F009B80000AB
:104FD00010B591EA030F48BF83F000433FF5A0AD41
:104FE000841A71EB030C07D212198CF0004C43EBBE
:104FF0000C03001B61EB0C01DFF8A4E14FEA115434
:10500000A4EB135C1EEA430F18BF9EEA445F00F056
:10501000B08023EA6E03524221EA0451C3EB6E03CF
:1050200038BF5B1EDCF1200E25D322FA0CFE10EBFC
:105030000E0043FA0CFE41EB0E01CCF1200E03FAF8
:105040000EFE10EB0E0051F10001CCF1200E29D420
:1050500012FA0EF201EB0451BDE8104058BF704740
:10506000401C1CBFB2F1004F704700280CBF491C08
:1050700020F00100704712EB020E43EB030218BF51
:105080004FF0010E4EEA4202ACF1200CDCF11E0E94
:1050900054D943FA0CFE10EB0E0051F1FF31CCF164
:1050A0001E0ED5D50EF1010E12FA0EFE404141EB57
:1050B000010101EB445C5FEA5C5C10D910EBDE702F
:1050C00001EB045138BFBEF1004FBDE8104018BFDE
:1050D000704700280CBF491C20F00100704730D2F7
:1050E0004FEAD42C11F5001124F400641BD0B1FA5E
:1050F00081F20B3AA41AA41ED2F12003914030FA97
:1051000003F31943904001EBCC71002C01EB0451E7
:10511000BDE81040A8BF704701F1C0414FF000004A
:1051200001F000417047B0FA80F310FA03F100D1AA
:1051300010BDE41A173C4805C90AE4E701EB045125
:1051400010BD491001EB0451BDE810404FEA30009A
:1051500002E04FF0000170474A0008BF0042F8D05B
:10516000B2F5001F28BF704701F000414FF000006A
:1051700070479EEA445F07D011EA5E0FBDE8104019
:1051800004BF002100207047BDE8104070B5FFF754
:1051900089FE00BF40DFF63E83F0004110467047B5
:1051A0000000E0FF43004FEAD30C4FEA3C0C4340C1
:1051B0001FBF40070CF1605113F0FE4F70471CF009
:1051C000006F03D100200CF0004170470CF0004349
:1051D00043EA507010B540EACC0000F07CFA00BF02
:1051E000000000924FEA0001FFF7AABE4FF0004115
:1051F0004FF00000A1F500217047000090EA010F78
:1052000048BF81F0004100F1EA82421A3CBF801A97
:1052100089184FEAD0524FF07F4C1CEA410FA2EBA5
:10522000D15318BF9CEA026F00F03B804FF0004C56
:105230004CEA00204CEA012121FA03FC10EB0C0C93
:105240001ED202F1FF325FEA1C2040EBC25038BF91
:1052500070471CF07F0F4FEA400C18BFBCF17F4F26
:1052600038BF7047C3F12003994008BF20F0010008
:10527000BCF17F4F38BF7047A0F1C04000F071BA59
:105280004FEA3C00000A40EBC25028BF1CF0FF0F61
:105290004FEA400CE6D018BFBCF17F4F38BF7047D3
:1052A000EAE79CEA026F05D010EA5C0F08BF00F045
:1052B0000040704710B500F00EFA00BF64FBBE3E20
:1052C000401058BFC0F14040491058BFC1F14041A3
:1052D0008142EFF3008070474FF47F0C1CEAD0123C
:1052E0001EBF1CEAD11392EA0C0F93EA0C0F00F0D8
:1052F000858090EA010F48BF42F4807240F4000CB0
:1053000041F400002CF07F4120F07F4000B5814245
:10531000A2EB03020FF2081CACEB504EC0F10000F0
:105320009EF800E04FEA4E0E00FB0EFC38BF49002D
:105330004FEA2C1C02F5FA020CFB0EF34FEACE1ECC
:105340004FEA112C4FEAC1210EEB635E42EB224281
:105350000EFB0CFC4FEA1C5300FB03114FEA112C0F
:105360004FEA01310EFB0CFC4FEADC4C00FB0C1148
:10537000C14228BF09184CEB03335DF804EB10EB76
:10538000410143EBC250B2F57C0F38BF704729D5BD
:1053900012F0F00F1CBF00F1C04000F00040704759
:1053A000008182838485868788898B8C8D8E8F91FE
:1053B0009293959697999A9C9D9FA0A2A3A5A7A822
:1053C000AAACAEB0B2B3B5B7B9BCBEC0C2C5C7C94E
:1053D000CCCED1D4D7D9DCDFE2E6E9ECF0F3F7FAB2
:1053E000FE0000004FEA400C0CF1807CBCF17E4FC7
:1053F00028BF7047B0F1C04000F0B3B990EA010F88
:105400000CEAD11348BF42F48072624538BF63454D
:1054100007D213F47F0F16D080EA010000F000409D
:10542000704710B500F057F9097EFC3E00F005B852
:1054300080EA010000F00040704780EA010000F0BF
:10544000004000F08EB912F47F0F04BF024870478D
:1054500080EA010000F085B90000C07F50EA010C2D
:1054600000F113801CF5000F58BFBCF5000F01D4EC
:105470008842704707D710F5000F58BF11F5000F8D
:1054800015D488427047894270471CF5000F04D537
:10549000BCF5000FF7D5814270474FF0807C1CEBC4
:1054A000400F38BF1CEB410F01D28142704710B54D
:1054B00000F011F9922449004FF000504FF0805154
:1054C000FFF7FEBE41000B0ED3F19E0208D950F447
:1054D00000034FEA032323FA02F048BF404270471B
:1054E00010B500F0F8F800BF499224800020704702
:1054F0006FF0004282EA200070470000C10DD1F138
:105500009E0206DB4FEA002343F0004323FA02F039
:105510007047004207D54FEA4001B1F1FE4F02D279
:105520004FF00000704710B500F0D5F84992248084
:10553000002070476FEA20007047000010F0004123
:1055400048BF4042B0FA80F310FA03F2C3F19D0362
:105550000BD051EAC35101EB1220530638BF7047FC
:1055600000F1010008BF20F00100704750EA010C73
:1055700000F113801CF5000F58BFBCF5000F01D4DB
:105580008842704707D710F5000F58BF11F5000F7C
:1055900015D488427047894270471CF5000F04D526
:1055A000BCF5000FF7D5814270474FF0807C1CEBB3
:1055B000400F38BF1CEB410F01D28142704710B53C
:1055C00000F089F8922449004FF000504FF08051CC
:1055D000FFF776BE4FF47F0C1CEAD0121EBF1CEA08
:1055E000D11392EA0C0F93EA0C0F00F0478090EA77
:1055F000010F48BF42F480724FF0004C4CEA00208B
:105600004CEA012102EB0302A0FB0113A2F5000208
:10561000002918BF43F001035B0028BF4FEA3303A2
:1056200042EB22425FEA132C4CEBC2502EBFBCEB84
:10563000436FB2F57C0F70474FEA036CBCF1004F2B
:1056400008BF20F00100B2F57C0F38BF70470BD5C2
:1056500082F0FF0212F5803FC8BF704700F1C040E2
:10566000D8BF00F00040704700F5000C5FEA4C0C1A
:1056700048BF7047B0F1C04000F073B890EA010F26
:105680000CEAD11348BF42F48072624538BF6345CB
:1056900004D280EA010000F00040704710B500F02D
:1056A0001AF800BF8900013E00F007B800F009B801
:1056B0005FEA410C5FEA1C6C08D080EA010000F050
:1056C00050B85FEA400C5FEA1C6CF6D14FF0004026
:1056D000A0F5800070470EF1020E2EF0030E5EF86A
:1056E000044B244204D44FEA4102B2F17F4F11D857
:1056F0004FEA4003B3F17F4F0CD80ED14FEAD07C74
:10570000B2F17F4F0CEB4C0C0CF1020C08BF4CEBD0
:10571000D17C04E04FF0080C01E04FEAD17C0CEBA7
:105720004C0324FA03F404F00704B4F1040C06D289
:105730000EEB840CBDE810404CF0010C6047DFE834
:105740000CF0070802024FF00040A0F5800010BDE9
:105750000846420018BFD2F1807288BF00F00040B6
:1057600010BDFF2141EAD050C005704751EA000C3E
:1057700000F113801CF5000F58BFBCF5000F01D4D9
:105780008142704707D711F5000F58BF10F5000F81
:1057900015D481427047894270471CF5000F04D52B
:1057A000BCF5000FF7D5884270474FF0807C1CEBAA
:1057B000410F38BF1CEB400F01D28842704780EA8E
:1057C000010081EA000180EA0100FFF7F8BE000055
:1057D00090EA010F48BF81F000413FF516AD421A33
:1057E00004D882F00042A0EB020011444FEAD052EC
:1057F0004FF07F4C1CEA410FA2EBD15318BF9CEA3B
:10580000026F4AD04FF0004C4CEA00204CEA0121D4
:1058100021FA03FCB0EB0C0C0FD412F0FE0F36D0C3
:105820005FEA4C001DD5001240EBC25038BF7047F4
:105830001CF03F0F18BF70470BE0A2F101025FEAB6
:105840001C2040EBC25038BF70471CF07F0F18BFC0
:105850007047C3F12003994014BF401E20F001009F
:10586000704780084FEA122308BF7047B0FA80FCE7
:10587000A2EB0C02CCF1280C60FA0CF093EA122F88
:1058800004BF00EBC25070474FEAC3707047130A61
:105890005FEADC1008BF7047F6E79CEA026F04D0AD
:1058A00010EA5C0F08BF0020704710B5FFF713FF28
:1058B00040DFF63E81F0004070470000000000002D
:1058C00000000000000000000000000000F80000E0
:1058D0000000000000333000000000100C06100C27
:1058E0000600000000000000000040C07840C078C2
:1058F0004000043F04043F040400007088FC0830AA
:105900000000001820FF211E0000F008F000E01841
:10591000000000211C031E211E0000F008887000FA
:1059200000001E2123241927211010160E0000004C
:1059300000000000000000000000000000E018046B
:105940000200000000071820400000020418E000D8
:1059500000000040201807000000404080F0804018
:1059600040000202010F01020200000000F00000EE
:1059700000000101011F0101010000000000000002
:10598000000080B070000000000000000000000077
:105990000000000101010101010100000000000000
:1059A00000000030300000000000000000008060B7
:1059B0001804006018060100000000E0100808103C
:1059C000E000000F102020100F00001010F8000061
:1059D00000000020203F20200000007008080888F8
:1059E00070000030282422213000003008888848C8
:1059F00030000018202020110E000000C02010F8F8
:105A0000000000070424243F240000F808888808C8
:105A100008000019212020110E0000E010888818CD
:105A20000000000F112020110E0000380808C838AF
:105A300008000000003F000000000070880808888F
:105A40007000001C222121221C0000E01008081018
:105A5000E0000000312222110F00000000C0C00051
:105A60000000000000303000000000000080000056
:105A70000000000080600000000000008040201056
:105A8000080000010204081020004040404040404F
:105A900040000404040404040400000810204080B2
:105AA00000000020100804020100007048080808E7
:105AB000F0000000003036010000C030C828E810B7
:105AC000E0000718272423140B000000C038E00072
:105AD0000000203C23020227382008F888888870BC
